:020000040800F2
:10000000900500207D010008290200082102000857
:10001000250200081B020008C102000800000000C1
:100020000000000000000000000000002D02000899
:100030001F020008000000002B02000895010008C4
:100040009701000897010008970100089701000830
:100050009701000897010008970100089701000820
:100060009701000897010008970100089701000810
:100070009701000897010008970100089701000800
:100080009701000897010008000000009701000890
:1000900097010008970100089701000897010008E0
:1000A00097010008970100089701000897010008D0
:1000B0009701000800000000970100080000000000
:1000C0009701000800000000970100089701000850
:1000D00097010008B902000897010008000000001D
:1000E00000000000000000009701000897010008D0
:1000F0009701000897010008970100089701000880
:1001000097010008000000000000000097010008AF
:1001100000000000000000000000000000000000DF
:1001200000000000000000000000000000000000CF
:1001300000000000000000000000000000000000BF
:1001400000000000000000000000000000000000AF
:10015000000000000000000097010008970100085F
:100160009701000897010008DFF80CD000F018F89C
:1001700000480047490600089005002006488047CF
:1001800006480047FEE7FEE7FEE7FEE7FEE7FEE77C
:10019000FEE7FEE7FEE7FEE731020008690100081E
:1001A000064C074D06E0E06840F0010394E80700C4
:1001B00098471034AC42F6D3FFF7DAFF001D000871
:1001C000201D000870B58C1810F8015B15F00703AE
:1001D00001D110F8013B2A1106D110F8012B03E0E0
:1001E00010F8016B01F8016B5B1EF9D12B0705D4E8
:1001F0000023521E0DD401F8013BFAE710F8013B31
:10020000CB1A921C03E013F8015B01F8015B521E4C
:10021000F9D5A142D8D3002070BD00BFFEE77047DA
:1002200000BFFEE700BFFEE7704770477047000061
:1002300010B51D48006840F001001B49086000BF70
:100240001948006800F002000028F9D016484068FC
:100250001649084014494860084640681449084057
:10026000114948600846406820F44000486008464C
:100270000068104908400C4908600846C06A20F030
:100280000F00C8620846006B40F2431188430649DC
:1002900008630846406B20F0010048630020886036
:1002A00000F0CEFA10BD0000001002400C00FF0864
:1002B000FFFFC277FFFFF2FE10B501F0DBF910BDC2
:1002C00000BFFEE702E008C8121F08C1002AFAD1E9
:1002D00070477047002001E001C1121F002AFBD1C6
:1002E00070470000014612480068FF281ED01148E0
:1002F0000078104A527840EA02200E4A927840EA8A
:1003000002400C4AD27840EA02600B4A1060094869
:1003100000791071074840795071064880799071D2
:100320000120064A1070FF20014A1060002070472B
:10033000D0000020D8000020EC000020E1000020C8
:100340002DE9F04107460D461446012D1AD1012C26
:1003500018D104EB840107F1100000EB81067168ED
:100360003069884206D100231A462146384600F0FB
:100370003DFE04E001200E4908700E49086000208F
:10038000BDE8F08125B91CB93846FFF7ABFF0DE099
:1003900065B9032C0AD101200749087003213846AA
:1003A00001F029FA054908600020E9E70220E7E7A3
:1003B000E000002000000020E1000020E400002018
:1003C00010B504460020054908700549086040231F
:1003D000044A0321204600F093FD10BDE1000020F7
:1003E000000000204C01002070B505460C46402C52
:1003F00008D8002004490870A3B2044A8121284685
:1004000000F0F4FD70BD0000E00000204C01002071
:1004100070B504460D468121204600F09DFB032166
:10042000204600F099FB8221204600F095FB002039
:1004300070BD000070B504460D46094A00212046F3
:1004400000F0E4FB064AD21F0021204600F0DEFB4C
:10045000034A173A0021204600F0D8FB002070BD67
:10046000E21C00082DE9F04105460C463A26444FAF
:10047000207800F0600000284AD020287BD16078E6
:10048000042815D007DC78B101280ED002280DD041
:1004900003283AD10BE020280BD0212813D02228A2
:1004A00031D0232831D12FE030E02FE02EE02DE0B5
:1004B0002CE0607833490860E388334A00212846FD
:1004C00000F01EFD22E0314800782F4908702F48C7
:1004D0000088000A48702D480068000C88702B487E
:1004E0000068000EC87029480079087127484079D3
:1004F0004871264880798871E3880A468021284619
:1005000000F074FD02E001E000E000BF00BF33E056
:100510006078062816D00A2802D00B2828D106E0D9
:1005200001231B4A8021284600F060FD21E0A078CD
:1005300018B9A0781649086003E02146284600F063
:1005400073FA16E060882121B1EB202F08D1E088F2
:100550003A2801DD3A2000E0E0880646084F0937D6
:1005600033463A468021284600F040FD01E002E093
:1005700000BF00BF00BF00BF00BF0020BDE8F0818A
:10058000AF1C0008D0000020D8000020EC000020A4
:10059000D40000208161704710B50823002201219A
:1005A000044800F009F8082303220021014800F064
:1005B0002AF810BD00040048F0B504460D46164662
:1005C0002168E268002019E0012787401F409FB1A1
:1005D0004FEA400C032707FA0CF7B943470005FA26
:1005E00007F739434FEA400C032707FA0CF7BA43E1
:1005F000470006FA07F73A43471CB8B21028E3D37E
:100600002160E260F0BDF0B50C461546012C03D127
:1006100046681E43466002E046689E434660826824
:1006200000210DE001268E401E403EB14F00032602
:10063000BE40B2434E0005FA06F632434E1CB1B23C
:100640001029EFD38260F0BD00F0A2F8FFF7A4FFFD
:10065000154800F091F900F033F808211348FFF72E
:1006600099FF0520104948701DE00F484078032885
:1006700019D10F480078012806D10E4800680128DA
:1006800002D10948FFF79CFE0B48006858B10B489F
:100690000078012807D1084801680348FFF7A4FE45
:1006A000002005490860E0E704000020000400483D
:1006B000E100002000000020E4000020E000002015
:1006C00010B54FF4C06000F059F800220121252038
:1006D00000F002F810BD0000F0B50B460021002428
:1006E0000025244E366806F4E066B6F5E06F02D1C8
:1006F00000BF042526E01F4E366806F4E066B6F516
:10070000C06F02D1012403251CE01A4E366806F49E
:10071000E066B6F5A06F02D10224022512E0154E64
:10072000366806F4E066B6F5806F02D10324012531
:1007300008E0104E366806F4E066B6F5407F01D159
:1007400004240025C4F1040603FA06F1C5F10407E8
:100750000F26FE40164031430901074E315400F088
:100760001F070126BE404711BF0007F1E027C7F869
:100770000061F0BD0CED00E000E400E0024901433F
:10078000024A1160704700000000FA050CED00E01D
:1007900010B540F2125000F009F8002000F016F8F1
:1007A00040F2177000F002F810BD0000064A02EB9C
:1007B0009011096800F01F0301229A401143024B77
:1007C00003EB901211607047001002400549496820
:1007D00021F44001034A51601146496801435160C8
:1007E00070470000001002400648006880B220F008
:1007F0000400044908600846006880B220F0080040
:1008000008607047405C00400C4840680B494860F5
:1008100008464068486008464068486008464068A6
:1008200020F00300486008464068486000BF034865
:10083000406800200028FAD17047000000100240F4
:1008400010B5FFF7E1FF10BD70B504460D46002658
:10085000287800F01F0020B1012830D0022878D17C
:1008600043E06078022802D0032825D100E000BFD1
:100870006888012818D10020E07029462046D4F865
:10088000C420904700BF002035490968888000BF18
:100890003449096848F6BF7201EA020080F030016D
:1008A000304A116000BF06E06888022803D129465B
:1008B000204600F0B9F800E000BF00BF4EE06078CD
:1008C000022802D003280DD104E02946204600F07A
:1008D000ABF808E02879012803D92946204600F022
:1008E000A3F800E000BF00BF38E02E79607802284E
:1008F00002D003282AD107E02EB1802E03D029464A
:10090000204600F091F822E0688830B92EB1802EA0
:1009100003D03146204600F08FF829462046D4F80F
:10092000C420904700BF00200D490968888000BF9F
:100930000C49096848F6BF7201EA020080F03001F4
:10094000084A116000BF00BF01E002E000BF00BF25
:1009500004E02946204600F067F800BF00BF70BDE4
:10096000FC000020005C00400346D3F8B40080780F
:100970001080D3F8B40070470021C1700121094AEA
:10098000116000211160121D1160064A10321160C1
:100990004FF41F41044A11601146098889B2014A87
:1009A00011607047405C0040F400002070B50446C0
:1009B0000D466078032822D1287901281AD82946C3
:1009C0002046D4F8C42090470646E888B0B9AEB9AE
:1009D00000BF00200E490968888000BF0D490968E2
:1009E00048F6BF7201EA020080F03001094A116046
:1009F00000BF03E02946204600F016F804E029462F
:100A0000204600F011F800BF00BF002070BD0000BC
:100A1000FC000020005C00400346D3F8B0000078E2
:100A20001080D3F8B000704770B504460D46002121
:100A3000204600F08BFA70BDF0B5024601F07F0051
:100A4000CC117CB300EB800502F1100404EB8503AC
:100A500000BF2E4D05EB8004D4F8004C04F0400498
:100A60006CB105EB8004D4F8004C48F68F752C402F
:100A700044F04004254E06EB8005C5F8004C00BF4D
:100A800000BF224E06EB8005D5F8005C48F6BF7625
:100A900005EA060484F030051C4F07EB8006C6F813
:100AA000005C30E0FFE700EB800502F1600404EB3E
:100AB000850300BF154D05EB8004D4F8004C04F409
:100AC00080446CB105EB8004D4F8004C48F68F7577
:100AD0002C4044F480440D4E06EB8005C5F8004CD4
:100AE00000BF00BF094E06EB8005D5F8005C4BF651
:100AF0008F7605EA060484F44055044F07EB800620
:100B0000C6F8005C00BF00241C70F0BD005000401F
:100B100070B5074D05EB4104002304E034F8046B85
:100B20000680801C5B1C551CB3EB550FF6D370BDC3
:100B30000060004030B5074D05EB4104002303E0A1
:100B4000058820C4801C5B1C551CB3EB550FF7D3E4
:100B500030BD00000060004030B5034601F07F006A
:100B6000CA113AB300BF284C04EB8002D2F8002C23
:100B700002F040026AB104EB8002D2F8002C48F681
:100B80008F74224042F040021F4D05EB8004C4F8F0
:100B9000002C00BF00BF1C4D05EB8004D4F8004CB6
:100BA00048F6BF7504EA0502174D05EB8004C4F84A
:100BB000002C27E000BF144C04EB8002D2F8002C7C
:100BC00002F480426AB104EB8002D2F8002C48F6AD
:100BD0008F74224042F480420B4D05EB8004C4F830
:100BE000002C00BF00BF084D05EB8004D4F8004C7A
:100BF0004BF68F7504EA0502034D05EB8004C4F83B
:100C0000002C00BF30BD0000005000402DE9F04333
:100C100005460B4614462246967806F00F00002142
:100C2000D67806F0030636B1012E0CD0022E05D080
:100C3000032E0BD104E04FF4007108E0002106E020
:100C40004FF4C06103E04FF4806100E000BF00BFDB
:100C500041EA0006B6B2DFF89CC20CEB8007C7F889
:100C6000006C91889678F611002E77D000EB800CFE
:100C700005F1100606EB8C0779609F4E3688DFF889
:100C80007CC2DCF800C00CEB001CACF800604E1C11
:100C900026F00101984E36680E44DFF85CC2CCF8AD
:100CA0000060012B44D1DFF84CC20CEB8006D6F873
:100CB000006C46F4807648F68F7C06EA0C06DFF876
:100CC000348208EB800CCCF8006C8B4E3688DFF851
:100CD0002CC2DCF800C00CEB001CACF80860864E9F
:100CE00036680E44DFF810C2CCF8006000BF08EB95
:100CF000800CDCF800CC48F6BF780CEA080686F0D9
:100D0000300CDFF8F09109EB8008C8F800CC00BF88
:100D100000BFC84608EB800CDCF800CC4BF68F789F
:100D20000CEA0806C84608EB800CCCF8006C13E00F
:100D300000BFDFF8C08108EB800CDCF800CC48F67F
:100D4000BF780CEA080686F0200CDFF8A89109EBC2
:100D50008008C8F800CC00BFC9E0FFE700EB800CBA
:100D600005F1600606EB8C077960012B55D1DFF8A1
:100D700084C10CEB8006D6F8006C46F4807648F609
:100D80008F7C06EA0C06DFF86C8108EB800CCCF84F
:100D9000006CC4460CEB8006D6F8006C48F68F7CDD
:100DA00006EA0C0646F0400608EB800CCCF8006C16
:100DB000514E3688DFF844C1DCF800C00CEB001C53
:100DC000ACF800603E2912D901F11F0626F01F0180
:100DD0000126C6EB4116B6B246F40046DFF81CC148
:100DE000DCF800C00CEB001CACF804600EE04E1CFC
:100DF00026F001014FF6FF7606EA4126DFF8FCC037
:100E0000DCF800C00CEB001CACF80C603A4E366805
:100E10000E44DFF8E4C0CCF800609188364E368886
:100E2000DFF8D8C0DCF800C00CEB001CACF80860A0
:100E30003E2912D901F11F0626F01F010126C6EB3B
:100E40004116B6B246F40046DFF8B0C0DCF800C088
:100E50000CEB001CACF80C600EE04E1C26F00101FF
:100E60004FF6FF7606EA4126DFF890C0DCF800C0B6
:100E70000CEB001CACF80C60012B23D100BFDFF899
:100E8000748008EB800CDCF800CC4BF68F780CEA11
:100E90000806DFF8608008EB800CCCF8006C00BF1F
:100EA00000BF08EB800CDCF800CC48F6BF780CEAF9
:100EB000080686F0200CDFF83C9009EB8008C8F8A3
:100EC00000CC13E000BFDFF82C8008EB800CDCF8CE
:100ED00000CC4BF68F780CEA080686F4005CDFF84D
:100EE000149009EB8008C8F800CC00BF00BFBDE833
:100EF000F083000000500040F8000020FC000020BB
:100F00002DE9F041044601F07F0000EB800704F179
:100F1000600606EB8705AA60EB6000BFDFF828C01B
:100F20000CEB8007D7F8007C4BF68F7C07EA0C06A9
:100F300086F44057DFF8108008EB800CCCF8007C7A
:100F400000BFBDE8F081000000500040F0B502464F
:100F500001F07F00CC11BCB100EB800502F1100460
:100F600004EB850300BF204E06EB8005D5F8005C3E
:100F700048F6BF7605EA060484F010051A4F07EB21
:100F80008006C6F8005C17E000EB800502F1600403
:100F900004EB850300BF144E06EB8005D5F8005C1A
:100FA0004BF68F7605EA060484F480550E4F07EB66
:100FB0008006C6F8005C00BF01241C7098B900BF11
:100FC000094E06EB8005D5F8005C4BF6BF7605EAC6
:100FD000060484F4805585F01005034F07EB800666
:100FE000C6F8005C00BFF0BD005000402DE9F8439A
:100FF00006460F46904699460020009007F07F0570
:1010000005EB850106F1100000EB8104C4F80880AF
:10101000C4F80C90002020616168E068884202D921
:101020006068009001E0E0680090009B9AB2114B6C
:101030001B6803EB05131988A068FFF77BFD0D49BA
:101040000098096801EB0511888000BF0A4A02EB8D
:101050008501D1F8001C48F6BF7201EA020080F059
:101060003001054B03EB8502C2F8001C00BFBDE850
:10107000F8830000FC0000200050004038B5044612
:101080000D4600200090E888012804D0294620461B
:10109000FFF7CAFC19E06078022802D003280ED1BD
:1010A00006E001236A4680212046FFF79FFF0BE000
:1010B0000123224680212046FFF798FF04E02946BD
:1010C0002046FFF7B1FC00BF00BF38BD2DE9F84353
:1010D00005460C46207800F01F0078BB4FF0000852
:1010E00060880612A77800200090032E21D8052FD3
:1010F0001FD8701E194951F820306A4639462846D3
:1011000098478046BDF80000B8B1E088A8B1E088F3
:10111000BDF80010884202DDBDF8000000E0E08864
:101120000090BDF80030424680212846FFF75EFF60
:1011300003E021462846FFF777FC0DE0FFE7207823
:1011400000F01F00012807D1D5F8C40020B12146C6
:101150002846D5F8C4209047BDE8F8833C0100201C
:1011600070B504460D466078022802D0032816D1D7
:1011700004E029462046FFF757FC11E028790128B2
:1011800008D8D4F8C40048B129462046D4F8C42071
:10119000904703E029462046FFF746FC00E000BFE9
:1011A00000BF70BD7CB504460E4600200190009043
:1011B000307800F01F0020B101281AD0022867D132
:1011C00034E06078022802D003280FD100E000BF8D
:1011D000E07820B1BDF8040040F002000190022345
:1011E00001AA80212046FFF701FF00E000BF00BFF9
:1011F00053E06078022802D0032814D104E031467D
:101200002046FFF711FC0FE03079012806D80223B1
:1012100001AA80212046FFF7E9FE03E0314620467F
:10122000FFF702FC00E000BF00BF36E035796078D0
:10123000022802D0032828D107E02DB1802D03D049
:1012400031462046FFF7F0FB20E005F080008028C3
:101250000BD105F07F0000EB800104F1100010F8C5
:10126000210058B10120009008E005EB850104F150
:10127000600010F8210008B10120009002236A46A6
:1012800080212046FFF7B2FE00E000BF00BF04E06F
:1012900031462046FFF7C8FB00BF00BF7CBD000001
:1012A00070B505460E4606EB860105F1100000EB11
:1012B0008104002E64D1E868002853D06168E0689A
:1012C000884211D96168E068401AE060A08983B261
:1012D00080212846A268FFF789FE00231A46194696
:1012E0002846FFF70DFE62E06168E068B0FBF1F2AE
:1012F00001FB120090B9E068E96888420ED2002331
:101300001A4680212846FFF771FE0020E86000237E
:101310001A4619462846FFF7F3FD48E00020E06032
:101320006878032805D1002201212846D5F8C83065
:10133000984700BF1F48006840F4807048F68F71DE
:1013400008401C49086000BF09684BF68F7201EA2B
:10135000020080F44051174A116000BF00BF002016
:10136000E86024E01448007808B31348007840F09F
:10137000800010494C31086000200F49087016E0C9
:10138000D4E90301401AE060E06848B968780328AE
:101390000DD1324601212846D5F8C830984706E0DD
:1013A000A08983B231462846A268FFF71FFE0020BD
:1013B00070BD0000005C004004010020014614489C
:1013C000007818B312480078401E114A1070104679
:1013D0000078D8B90F48007801280AD10E48006873
:1013E00080B220F010000C4A10600020094A1070F2
:1013F0000CE00948006880B240F01000064A106016
:101400000320034A10700120024A10700020704728
:101410000001002002010020405C00402DE9FC4159
:1014200007460025002001900090002495E0BDF8BB
:10143000040000F00F054E4901EB8500D0F8000CC8
:1014400080B20090BDF8040000F0100048BB05EB2E
:10145000850107F1100000EB8104BDF8000000F0E9
:101460008000002879D0424901EB8500D0F8000CBB
:1014700048F60F7108403E4A02EB8501C1F8000CA6
:101480003C48006800EB05108088C0F3090020612B
:101490002169A0680844A06029463846FFF700FF8C
:1014A0005BE0002605EB850107F1600000EB81049D
:1014B000BDF8000000F4004000284DD02C4901EB9D
:1014C0008500D0F8000CC0F30E0048F68F7108407C
:1014D000274A02EB8501C1F8000C2648006800EBA2
:1014E00005108089C0F30906D6B1BDF8000000F4EC
:1014F000006060B11F48006801893246381DFFF75F
:1015000007FB384600F037FB0020BDE8FC81194A94
:10151000126802EB051211893246A068FFF7F8FA4B
:10152000206930442061A0683044A060E068801BDE
:10153000E060E06810B16068B04206D929463846DC
:1015400000F004F90020206106E0A08983B229465A
:101550003846A268FFF7D4FC00BF0748006880B295
:10156000019000F4004000287FF461AF00BFCCE799
:1015700000500040FC000020445C004010B50246D2
:1015800040201F4B1860184600881E4B1B681880AF
:101590001B48006840301A4B186018460088194BE9
:1015A0001B681881164800684030154B186048F2D7
:1015B000FF70144B1B6898814023536153660021D0
:1015C0000FE0114B03EB8100D0F8000C48F68F734D
:1015D000184008430C4C04EB8103C3F8000C481C72
:1015E000C1B20429EDD343F22020084B18608020BB
:1015F000064B4C33186001205070002010BD0000D5
:10160000F8000020FC00002000500040005C00407A
:1016100010B504460448006820B10348006801681A
:1016200020468847002010BDE800002010B5044681
:101630006078A070042060700548007810B100F058
:10164000D9FA02E0032003490870002010BD000011
:10165000010100200001002010B50446A078607050
:101660000348007808B9FFF7BFF8002010BD00005C
:10167000020100201CB50020019000903048006855
:1016800080B201902F48008800F40040BDF804109B
:10169000084010B12C48FFF7C1FE2A48008800F42A
:1016A0008050BDF80410084030B14EF6FF70244958
:1016B00008602548FFF7D0FF2248008800F400604A
:1016C000BDF80410084060B11D48001F006800F01C
:1016D000100030B91C48FFF7A9FF4FF2FF701849FE
:1016E00008601848008800F40070BDF80410084035
:1016F00030B14FF6FF50124908601348FFF788FFDA
:101700001048008800F48070BDF80410084030B123
:101710004FF6FF600A4908600B48FFF74FFE094883
:10172000008800F48060BDF80410084030B14FF626
:10173000FF30034908600448FFF720FF1CBD00008C
:10174000445C0040F40000200400002070B5044612
:101750000E4606EB860104F1600000EB81057EBBBE
:10176000E06870B36968E86888420BD96968E8681E
:10177000401AE860A88983B200212046AA68FFF7D2
:10178000BFFB30E06078032805D1002211462046D7
:10179000D4F8C830984700BF0020144909688880F1
:1017A00000BF1349096848F6BF7201EA020080F0E1
:1017B00030010F4A116000BF00BF0020E06012E05E
:1017C00008E0FFE70A48006848F68F6108400849CA
:1017D000086008E06078032805D1324600212046E1
:1017E000D4F8C8309847002070BD0000FC000020ED
:1017F000005C00407047024601EB810302F160008B
:1018000000EB8300008A80B27047000070B5044688
:101810000D46A88848BBE88838BBA87800F07F0050
:10182000144908706078032804D129462046FFF740
:10183000FBF81EE000BF00200F490968888000BF48
:101840000E49096848F6BF7201EA020080F03001D3
:101850000A4A116000BF00BF0648007810B102209C
:10186000607006E00120607003E029462046FFF723
:10187000DBF870BD04010020FC000020005C00408B
:1018800070B504460D46A8784F49087008460078A0
:10189000012804D929462046FFF7C6F893E060786E
:1018A000022802D0032878D132E047480078E0B11E
:1018B0004548007820700320607043480178204636
:1018C000D4F8BC20904700BF0020404909688880B8
:1018D00000BF3F49096848F6BF7201EA020080F084
:1018E00030013B4A116000BF11E000BF00203749C2
:1018F0000968888000BF3649096848F6BF7201EA66
:10190000020080F03001324A116000BF00BF59E090
:101910002D480078E0B9022060702B4800782070D4
:10192000294801782046D4F8C020904700BF002005
:1019300026490968888000BF2549096848F6BF72B2
:1019400001EA020080F03001214A116000BF37E057
:1019500020781D490978884220D021782046D4F883
:10196000C02090471848007820701748017820461A
:10197000D4F8BC20904700BF002014490968888033
:1019800000BF1349096848F6BF7201EA020080F0FF
:1019900030010F4A116000BF12E012E000BF0020CA
:1019A0000A490968888000BF0949096848F6BF727A
:1019B00001EA020080F03001054A116000BF00BF5B
:1019C00000E000BF00BF70BD48010020FC00002007
:1019D000005C00407047000070B505460C460026CC
:1019E000207800F01F0020B1012823D0022865D103
:1019F00036E06878022802D0032818D100E000BF42
:101A00006088012812D1E87000BF00202F490968C2
:101A1000888000BF2E49096848F6BF7201EA0200BB
:101A200080F030012A4A116000BF00BF00E000BF13
:101A300000BF48E06878022802D003280DD104E0F6
:101A400021462846FEF7F0FF08E02079012803D957
:101A500021462846FEF7E8FF00E000BF00BF32E065
:101A600026796878022802D0032824D107E02EB115
:101A7000802E03D021462846FEF7D6FF1CE0608862
:101A800030B92EB1802E03D031462846FFF75EFADA
:101A900000BF00200D490968888000BF0C49096813
:101AA00048F6BF7201EA020080F03001084A116076
:101AB00000BF00BF00E000BF00BF04E02146284691
:101AC000FEF7B2FF00BF00BF70BD0000FC000020A9
:101AD000005C004070B504460D466078022802D0D4
:101AE000032827D104E029462046FEF79DFF22E087
:101AF0002879012819D8D4F8C40020B129462046F5
:101B0000D4F8C420904700BF00200C4909688880A1
:101B100000BF0B49096848F6BF7201EA020080F075
:101B20003001074A116000BF03E029462046FEF756
:101B30007BFF00E000BF00BF70BD0000FC00002084
:101B4000005C004010B50246101D03780B7043780E
:101B50004B708478C37804EB03234B80047943797A
:101B600004EB03238B808479C37904EB0323CB80BC
:101B7000CB88D36010BD1CB5044669462046FFF7EC
:101B8000E1FF9DF8000000F0600020B1202807D0A0
:101B900040280FD109E06946204600F013F80EE016
:101BA00069462046FEF702FF09E06946204600F03C
:101BB0002CF804E000212046FFF7C8F900BF00BF61
:101BC00000201CBD70B505460C466078034951F8ED
:101BD0002020214628469047002070BD08010020A3
:101BE00010B50346D3F8B84054F8210004781480A7
:101BF00010BD00000348006880B240F00C000149AD
:101C000008607047405C0040704702460020704703
:101C10001603470069006700610044006500760014
:101C2000690063006500000038034700440033008A
:101C300032002000550053004200200043004400C1
:101C400043002000410043004D00200069006E0069
:101C500020004600530020004D006F006400650026
:101C600000003003470044003300320046003100DA
:101C7000780030002D0033002E0030002E003000A0
:101C80002D0037007A0038007800390079006500AF
:101C9000720000001201000202000040E9288A01DF
:101CA0000001010203010902430002010080320920
:101CB00004000001020201000524001001052401B6
:101CC000000104240202052406000107058203081E
:101CD000000A09040100020A00000007050302408F
:101CE0000000070581024000000403090400000011
:101CF000E91C0008101C0008281C0008621C0008D1
:101D0000201D0008000000204C010000C401000854
:101D1000841D00084C01002044040000D402000887
:101D200002B30113941C1B08A6041AF00413350413
:101D30001B0811041A6504134103F308FFAA01E10B
:101D40002AC20D520842401A6007592013A51114E7
:101D50000849081408F5174C08D91908130D181468
:101D600008CD101B08D5101A7D081A81101A612899
:101D700013D51A1B08097C13190A140869094C08A1
:041D8000E11B55000E
:040000050800016985
:00000001FF
