:020000040800F2
:10000000100400207D010008D5010008CD01000882
:10001000D1010008C50100083503000800000000F8
:10002000000000000000000000000000ED010008DA
:10003000C901000800000000E90100081D020008D5
:100040009701000897010008970100089701000830
:100050009701000897010008970100089701000820
:100060009701000897010008970100089701000810
:100070009701000897010008970100089701000800
:100080009701000897010008000000009701000890
:1000900097010008970100089701000897010008E0
:1000A00097010008970100089701000897010008D0
:1000B0009701000800000000970100080000000000
:1000C0009701000800000000970100089701000850
:1000D0009701000897010008970100080000000040
:1000E00000000000000000009701000897010008D0
:1000F0009701000897010008970100089701000880
:1001000097010008000000000000000097010008AF
:1001100000000000000000000000000000000000DF
:1001200000000000000000000000000000000000CF
:1001300000000000000000000000000000000000BF
:1001400000000000000000000000000000000000AF
:10015000000000000000000097010008970100085F
:100160009701000897010008DFF80CD000F018F89C
:1001700000480047F90500081004002006488047A1
:1001800006480047FEE7FEE7FEE7FEE7FEE7FEE77C
:10019000FEE7FEE7FEE7FEE7290200086901000826
:1001A000064C074D06E0E06840F0010394E80700C4
:1001B00098471034AC42F6D3FFF7DAFF080B00087B
:1001C000280B0008FEE7000070470000FEE7000073
:1001D000FEE70000704700004EF623510001CEF20A
:1001E0000001087070470000704700007047000071
:1001F000B0B501380024B4EB106F1CBF0120B0BDB6
:100200004EF21005CEF2000568600F20FFF7E4FF04
:100210000720AC6028602046B0BD000080B500F02B
:10022000D1F900F093F880BD80B541F20400C4F22A
:10023000020050F8041C41F0010140F8041C00BF0A
:1002400050F8041C8907FBD501680C22C0F6FF0298
:100250001140016001684FF6FF72C7F2C27211408F
:10026000016001684FF6FF7221F44001016050F80F
:10027000041CCFF6F262114040F8041C816A40F27F
:10028000431221F00F018162C16A9143C162016B87
:1002900021F0010101630021416000F0FFFA80BDFF
:1002A00010B540F2115000F0B7FA40F2117000F0B2
:1002B000B3FA4FF090400121042200F0FDF84FF016
:1002C00090400121082200F0F7F84FF09040022101
:1002D0000122042300F028F94FF090400021012270
:1002E000042300F04BF94FF0904002210122082333
:1002F00000F01AF94FF0904000210122082300F08D
:100300003DF944F20044C4F20004204600F012FB20
:1003100020464FF4E13100F0DBFA2046082100F0DE
:1003200039FB2046042100F02DFB204600F01CFB89
:1003300010BD0000FEE7000040F20801C2F200011B
:10034000086000BF08680028FCD1704740F2080030
:10035000C2F200000168002908BF70470168013936
:1003600001607047B0B544F20045C4F20005044690
:10037000C1B2284600F0DAFA284640F2077100F0D0
:10038000F9FA0028F8D02046B0BD0000B0B5044608
:1003900040F2125000F040FA40F20E6000F03CFAD9
:1003A00040F20045C4F6000528460021402200F036
:1003B00083F828460021802200F07EF8284602219A
:1003C0000122402300F0B0F82846002101224023FA
:1003D00000F0D4F8284602210122802300F0A4F87E
:1003E000284600210122802300F0C8F8204600F0B2
:1003F000A1FA20464FF4E13100F06AFA20460821C4
:1004000000F0C8FA2046042100F0BCFA204600F0B3
:10041000ABFAB0BDB0B504460FA030F8140000F040
:10042000FBF940F6E820C0F6000050F8245040F6F2
:10043000F820C0F6000050F8244028460121002290
:10044000234600F071F8284600210322234600F0DD
:1004500095F8AC62B0BD00BF110511051305140578
:1004600040F6F82140F6E822C0F60001C0F600028E
:1004700051F8201052F820008162704740F6F821B0
:1004800040F6E822C0F60001C0F6000251F8201044
:1004900052F820008161704740F6E822C0F6000261
:1004A00040F6F82152F82020C0F6000151F8200053
:1004B0005169484050617047F0B5D0F820E0D0F85D
:1004C00024C000230F27002505E000BF0135082DBB
:1004D00003F104030CD022FA05F6F607F6D007FA6A
:1004E00003F62EEA060601FA03F446EA040EEDE7E7
:1004F000082300240F2504E00133102B04F1040429
:100500000CD022FA03F6F607F6D005FA04F62CEA28
:10051000060701FA04F647EA060CEDE7C0F820E00A
:10052000C0F824C0F0BD00002DE9F041D0F800E093
:10053000D0F80CC000244FF00308002605E000BFEF
:100540000136102E04F1020412D023FA06F7FF0739
:10055000F6D008FA04F72EEA070E01FA04F54EEA7F
:10056000050E2CEA070702FA04F547EA050CE7E74F
:10057000C0F800E0C0F80CC0BDE8F081B0B50129BA
:10058000416814BF994319434160D0F808C0002165
:100590004FF0030E002404E00134102C01F102019D
:1005A0000CD023FA04F5ED07F6D00EFA01F52CEA8B
:1005B000050C02FA01F54CEA050CEDE7C0F808C09D
:1005C000B0BD000010B540F20C04C2F20004206877
:1005D00038B1206880087C2807D80120FFF74EFF3B
:1005E00006E04FF47A70206010BD0120FFF738FF5D
:1005F00020680138206010BD0120FFF70BFF43F693
:100600000000C4F20100FFF7C1FEFFF749FE14A08D
:1006100000F058FA1BA000F055FA1FA023A126A253
:1006200000F0C0F90EA000F04DFA00F03BF90025F3
:1006300024A409E00120FFF72FFF0020FFF72CFF83
:100640004FF4FA70FFF778FE2E2000F035FA0135EE
:10065000E8B20A28EED3204600F034FA0025E9E794
:100660002D2D2D2D2D2D2D2D2D2D2D2D2D2D2D2DBA
:100670002D2D2D2D2D2D2D2D2D2D2D2D2D2D2D0DCA
:10068000000000005369706565644051696E5955FA
:100690004E3537350D000000436F6D70696C654055
:1006A0002025732025730D0A000000004465632097
:1006B000313020323032300030313A30383A333550
:1006C000000000000D000000F0B541F20403C4F288
:1006D00002031968024641F20020C0F27A0001F0DC
:1006E0000C010829014619D119681E681D683601D8
:1006F0004FF01106C1F3834158BF0226ED03314488
:1007000005D440F60016C0F23D06714306E09E6A2D
:1007100006F00F060136B0FBF6F671431E68D3F8FB
:1007200000E01D68062A1CD8C6F3031634A4A65D93
:1007300037A7C5F3C22521FA06F47D5D24FA05FC2E
:10074000DFE802F00413152E061C25008C4627E076
:10075000D86AC00526D449F6807CC0F2D50C604624
:10076000F0BD4FF0000C6046F0BD2046F0BDCEF36A
:100770000220385C24FA00FC6046F0BDD86A4FF4D1
:10078000004C400658BF48F2120C6046F0BDDA6AD1
:10079000920705D0DA6A8C4602F00302012A0CD1D6
:1007A0006046F0BD1868C0F38130DFE800F0021643
:1007B0001A244FEA5C0C6046F0BDD96A01F00301CF
:1007C000022903D14FF4004C6046F0BDD96A01F014
:1007D0000301032918BF0020F0BD4FEA9C0C6046BE
:1007E000F0BD4AF6AB20CAF6AA20ACFB00014FEAE6
:1007F000910C6046F0BD4FEADC0C6046F0BD00BFD6
:1008000000000000000000000102030406070809C0
:10081000000000000102030441F2000300F01F0188
:100820008009C4F202034FF0010CC2580CFA01F126
:100830001143C1507047000041F2000300F01F0156
:100840008009C4F202034FF0010CC2580CFA01F106
:1008500022EA0101C150704741F2000300F01F017C
:100860008009C4F202034FF0010CC2580CFA01F1E6
:100870001143C1507047000041F20400C4F202006D
:10088000016801600168016001680160016821F090
:1008900003010160016801600068704780B5FFF7DF
:1008A000EBFF80BD80B540F20400C2F2000000689A
:1008B00044F6D351C1F26201A0FB01018809FFF7A0
:1008C00097FC00B1FEE70020FFF786FC80BD00002A
:1008D000B0B5044643F60000C4F2010084420D4660
:1008E00007D044F20040C4F20000844205D1022047
:1008F00000E00620FFF7E8FE00E000202168090480
:1009000006D400EB5500B0FBF5F080B2E060B0BD5E
:10091000400000EB5500B0FBF5F04FF6F0710140E0
:10092000C0F342000844E060B0BD00006FF35F21F7
:100930008162704710B543F60001C4F2010188429C
:1009400009D044F20041C4F20001884218BF10BD32
:1009500040F2114401E040F20E342046FFF77CFFE4
:100960002046FFF769FF10BD016841F001010160F9
:10097000704700008A09105801F01F01C84000F0BC
:1009800001007047026822F004020260026811430D
:1009900001607047026822F0080202600268114399
:1009A000016070470FB4054B10B503A9044A0298C3
:1009B00000F017F810BC5DF814FB00006503000898
:1009C0000000002002E008C8121F08C1002AFAD166
:1009D00070477047002001E001C1121F002AFBD1BF
:1009E00070472DE9F84F99469246884605460027FC
:1009F00006E025280AD051464A4690476D1C7F1CC8
:100A000028780028F5D13846BDE8F88F002315F87E
:100A1000011F18462E2915D115F8011F04232A2974
:100A20000DD06FF02F022978A1F13004092C09D8DC
:100A300000EB800002EB400008446D1CF3E758F81F
:100A4000040B6D1C2A78002ADDD0632A07D0732A94
:100A50000FD0104651464A4690477F1C2AE018F8AE
:100A6000042B8DF8002000218DF801106E46012125
:100A700003E058F8046B4FF0FF315A074FF00004C1
:100A800001D409E0641C84420BDA8C42FADB325D4B
:100A9000002AF7D105E0641C8C42FCDB305D0028A5
:100AA000F9D1274404E016F8010B51464A46904715
:100AB000641EF8D26D1CA3E70149FFF753BC000088
:100AC0000000002010B5044601E0FFF74BFC14F8CD
:100AD000010B04490028F8D1BDE810400A20FFF7B7
:100AE00041BC000000000020000000480000004859
:100AF00000080048000C004800040000010000004D
:100B00000010000004000000280B00080000002076
:100B100008000000C4090008300B0008080000208D
:100B200008040000D40900080000000000127A0048
:040000050800016985
:00000001FF
