:020000040800F2
:10000000480400207D010008D5010008CD0100084A
:10001000D1010008C5010008F1020008000000003D
:10002000000000000000000000000000DD010008EA
:10003000C901000800000000D9010008950100086E
:100040009701000897010008970100089701000830
:100050009701000897010008970100089701000820
:100060009701000897010008970100089701000810
:100070009701000897010008970100089701000800
:100080009701000897010008000000009701000890
:1000900097010008970100089701000897010008E0
:1000A000970100089701000897010008590200080D
:1000B0009701000800000000970100080000000000
:1000C0009701000800000000970100089701000850
:1000D0009701000897010008970100080000000040
:1000E00000000000000000009701000897010008D0
:1000F0009701000897010008970100089701000880
:1001000097010008000000000000000097010008AF
:1001100000000000000000000000000000000000DF
:1001200000000000000000000000000000000000CF
:1001300000000000000000000000000000000000BF
:1001400000000000000000000000000000000000AF
:10015000000000000000000097010008970100085F
:100160009701000897010008DFF80CD000F018F89C
:1001700000480047B10400084804002006488047B2
:1001800006480047FEE7FEE7FEE7FEE7FEE7FEE77C
:10019000FEE7FEE7FEE7FEE7E1010008690100086F
:1001A000064C074D06E0E06840F0010394E80700C4
:1001B00098471034AC42F6D3FFF7DAFF5409000831
:1001C00074090008FEE7000070470000FEE7000029
:1001D000FEE7000070470000704700007047000015
:1001E00080B541F20400C4F2020050F8041C41F052
:1001F000010140F8041C00BF50F8041C8907FBD51E
:1002000001680C22C0F6FF021140016001684FF640
:10021000FF72C7F2C2721140016001684FF6FF72AF
:1002200021F44001016050F8041CCFF6F262114045
:1002300040F8041C816A40F2431221F00F018162F0
:10024000C16A9143C162016B21F001010163002188
:10025000416000F0B9FA80BDB0B543F60004052551
:10026000C4F20104C0F205752046294600F028FBBF
:10027000D0B1204600F0DAFA40F24001C2F20001AB
:100280000A88531C0B8040F22003C2F200039854EA
:10029000088840F20401C2F200010978884203D1C3
:1002A0002046052100F0F2FA05F10211204600F087
:1002B00007FBD8B140F24205C2F200052878411C84
:1002C000297040F20601C2F20001095C204600F0EC
:1002D000B1FA40F20501C2F200012878097888429B
:1002E00018BFB0BD2046072100F0D0FAB0BD000015
:1002F000FEE70000B0B543F60005C4F20105044670
:10030000C1B2284600F096FA284640F2077100F084
:10031000B5FA0028F8D02046B0BD0000B0B50446BC
:1003200040F2125000F00EFA40F20E6000F00AFAAD
:1003300040F20045C4F6000528460021402200F0A6
:1003400031F828460021802200F02CF828460221AE
:100350000122402300F05EF82846002101224023BC
:1003600000F082F8284602210122802300F052F892
:10037000284600210122802300F076F8204600F074
:100380005DFA20464FF4E13100F022FA20460821C0
:1003900000F0B0FA2046042100F0A4FA204600F054
:1003A00067FAB0BDF0B5D0F820E0D0F824C0002343
:1003B0000F27002505E000BF0135082D03F10403D8
:1003C0000CD022FA05F6F607F6D007FA03F62EEA65
:1003D000060601FA03F446EA040EEDE708230024BA
:1003E0000F2504E00133102B04F104040CD022FA91
:1003F00003F6F607F6D005FA04F62CEA060701FA2A
:1004000004F647EA060CEDE7C0F820E0C0F824C087
:10041000F0BD00002DE9F041D0F800E0D0F80CC0AC
:1004200000244FF00308002605E000BF0136102E1F
:1004300004F1020412D023FA06F7FF07F6D008FAF7
:1004400004F72EEA070E01FA04F54EEA050E2CEA2F
:10045000070702FA04F547EA050CE7E7C0F800E0F1
:10046000C0F80CC0BDE8F081B0B50129416814BFE7
:10047000994319434160D0F808C000214FF0030EA2
:10048000002404E00134102C01F102010CD023FA05
:1004900004F5ED07F6D00EFA01F52CEA050C02FA88
:1004A00001F54CEA050CEDE7C0F808C0B0BD00004E
:1004B00043F600041B2000210022C4F2010400F0D6
:1004C00045F82046FFF72AFF2046072100F0ECF907
:1004D00040F20500C2F20000007840F24201C2F290
:1004E000000100BF0A788242FCD300BF204640F2E0
:1004F000067100F0C3F90028F8D02046052100F06D
:10050000D3F940F20400C2F20000007840F240014A
:10051000C2F200010A888242FCD30988814203D1D9
:1005200002A000F0EFF900BFFEE700BF0A0D55532F
:100530004152542072656365697665207375636303
:1005400065737366756C6C79210A0D004EF60C5C50
:10055000CEF2000CDCF8003003F4E063B3F5E06F9A
:1005600003D14FF0000C04232BE0DCF8003003F43F
:10057000E063B3F5C06F03D14FF0010C032320E01B
:10058000DCF8003003F4E063B3F5A06F03D102237D
:100590004FF0020C15E0DCF8003003F4E063B3F533
:1005A000806F03D14FF0030C01230AE0DCF8003028
:1005B0004FF0040C03F4E063B3F5407318BF01235C
:1005C0009B0099400F2323FA0CF31A4011434EF27B
:1005D0000012CEF20002090140EA020383F8001380
:1005E00000F01F01012303FA01F11C2303EAD000EC
:1005F00081507047F0B541F20403C4F20203196858
:10060000024641F20020C0F27A0001F00C010829F4
:10061000014619D119681E681D6836014FF0110690
:10062000C1F3834158BF0226ED03314405D440F69F
:100630000016C0F23D06714306E09E6A06F00F0602
:100640000136B0FBF6F671431E68D3F800E01D6872
:10065000062A1CD8C6F3031634A4A65D37A7C5F333
:10066000C22521FA06F47D5D24FA05FCDFE802F0DC
:100670000413152E061C25008C4627E0D86AC005F9
:1006800026D449F6807CC0F2D50C6046F0BD4FF010
:10069000000C6046F0BD2046F0BDCEF30220385C71
:1006A00024FA00FC6046F0BDD86A4FF4004C4006C6
:1006B00058BF48F2120C6046F0BDDA6A920705D0C6
:1006C000DA6A8C4602F00302012A0CD16046F0BDC2
:1006D0001868C0F38130DFE800F002161A244FEAF0
:1006E0005C0C6046F0BDD96A01F00301022903D118
:1006F0004FF4004C6046F0BDD96A01F003010329B4
:1007000018BF0020F0BD4FEA9C0C6046F0BD4AF6D1
:10071000AB20CAF6AA20ACFB00014FEA910C604660
:10072000F0BD4FEADC0C6046F0BD00BF00000000E9
:100730000000000001020304060708090000000091
:100740000102030441F2000300F01F018009C4F21A
:1007500002034FF0010CC2580CFA01F11143C150D1
:100760007047000041F2000300F01F018009C4F24D
:1007700002034FF0010CC2580CFA01F122EA010108
:10078000C150704741F2000300F01F018009C4F21C
:1007900002034FF0010CC2580CFA01F11143C15091
:1007A0007047000041F20400C4F2020001680160D9
:1007B0000168016001680160016821F003010160C6
:1007C000016801600068704780B5FFF7EBFF80BDEE
:1007D000B0B5044643F60000C4F2010084420D4661
:1007E00007D044F20040C4F20000844205D1022048
:1007F00000E00620FFF7FEFE00E00020216809046B
:1008000006D400EB5500B0FBF5F080B2E060B0BD5F
:10081000400000EB5500B0FBF5F04FF6F0710140E1
:10082000C0F342000844E060B0BD0000406A6FF3CE
:100830005F2070476FF35F218162704710B543F608
:100840000001C4F20101884209D044F20041C4F21F
:100850000001884218BF10BD40F2114401E040F28F
:100860000E342046FFF78EFF2046FFF77BFF10BDBA
:10087000016841F001010160704700008A091058C9
:1008800001F01F01C84000F00100704701F01F0295
:10089000C1F389114FF0010C0B580CFA02F223EA54
:1008A00002020A507047000001F01F02C1F38911D3
:1008B0004FF0010C0B580CFA02F21A430A50704721
:1008C000C1F3891252F800C08A0D105801F01F03BD
:1008D000C1F30441C8402CFA03F1084000F00100C4
:1008E00070470000026822F00402026002681143AF
:1008F00001607047026822F008020260026811433A
:1009000001607047014A024900F013B8F50200087F
:100910000000002002E008C8121F08C1002AFAD116
:1009200070477047002001E001C1121F002AFBD16F
:1009300070472DE9F04116460F460446002503E0B6
:100940003946B047641C6D1C20780028F8D1284631
:10095000BDE8F081780900080000002020000000B8
:10096000140900089809000820000020280400004D
:1009700024090008000000000000000020180A0DF3
:10098000555341525420696E7465727275707420AB
:08099000746573740A0D000088
:040000050800016985
:00000001FF
