:020000040800F2
:10000000A80900207D01000829020008210200083B
:10001000250200081B020008CD02000800000000B5
:100020000000000000000000000000002D02000899
:100030001F020008000000002B0200082F02000829
:100040009701000897010008970100089701000830
:100050009701000897010008970100089701000820
:100060009701000897010008970100089701000810
:100070009701000897010008970100089701000800
:100080009701000897010008000000009701000890
:1000900097010008970100089701000897010008E0
:1000A00097010008970100089701000897010008D0
:1000B0009701000800000000970100080000000000
:1000C0009701000800000000970100089701000850
:1000D00097010008C5020008970100080000000011
:1000E0000000000000000000B902000897010008AD
:1000F0009701000897010008970100089701000880
:1001000097010008000000000000000097010008AF
:1001100000000000000000000000000000000000DF
:1001200000000000000000000000000000000000CF
:1001300000000000000000000000000000000000BF
:1001400000000000000000000000000000000000AF
:10015000000000000000000097010008970100085F
:100160009701000897010008DFF80CD000F018F89C
:100170000048004715060008A809002006488047E7
:1001800006480047FEE7FEE7FEE7FEE7FEE7FEE77C
:10019000FEE7FEE7FEE7FEE731020008690100081E
:1001A000064C074D06E0E06840F0010394E80700C4
:1001B00098471034AC42F6D3FFF7DAFFA8210008C5
:1001C000C821000870B58C1810F8015B15F0070302
:1001D00001D110F8013B2A1106D110F8012B03E0E0
:1001E00010F8016B01F8016B5B1EF9D12B0705D4E8
:1001F0000023521E0DD401F8013BFAE710F8013B31
:10020000CB1A921C03E013F8015B01F8015B521E4C
:10021000F9D5A142D8D3002070BD00BFFEE77047DA
:1002200000BFFEE700BFFEE77047704770477047AA
:1002300010B51D48006840F001001B49086000BF70
:100240001948006800F002000028F9D016484068FC
:100250001649084014494860084640681449084057
:10026000114948600846406820F44000486008464C
:100270000068104908400C4908600846C06A20F030
:100280000F00C8620846006B40F2431188430649DC
:1002900008630846406B20F0010048630020886036
:1002A00000F042FD10BD0000001002400C00FF08ED
:1002B000FFFFC277FFFFF2FE10B54FF4802000F081
:1002C00085F810BD10B501F049FC10BD00BFFEE778
:1002D00002E008C8121F08C1002AFAD1704770470F
:1002E000002001E001C1121F002AFBD1704700006D
:1002F0002DE9F04781460D46144628480078C0B9DC
:10030000012026490870264805602648806826494D
:10031000086008460068A04201D9084604602248E7
:10032000008883B21E4881210268484601F0D2F855
:1003300032E01A48007801281FD11A4846688068C0
:1003400019490968471A4FF00008424639463046B5
:1003500000F02EF81548124908600D201249086077
:1003600003200E4908701048008883B20C48812190
:100370000268484601F0AEF80EE00848007803280D
:100380000AD10020054908701F23064A0221484669
:1003900001F02AF8BDE8F08700BFFBE7FE0000206F
:1003A00000010020780500200401002098050020AD
:1003B00010B5044B044C23602346586099601A73AF
:1003C00010BD0000555342539805002001490860B4
:1003D000704700001404014010B500F08FF80020B1
:1003E00010BD0000F0B5044608480E1808E00025CE
:1003F00004E016F8010B04F8010B6D1C9542F8D3CC
:10040000181EA3F10103F2D1F0BD00000040000866
:100410002DE9F05F04460D4693461E46A80A0F4993
:1004200001EB8028A146374612E0404600F018F85C
:100430004FF0000A00BF59F8041B404600F070F866
:1004400008F104080AF101008246FF28F3D97F1E53
:10045000002FEAD10020BDE8F09F00000040000816
:1004600030B504464FF4702000F01EF80546B5B9CB
:100470000C48006940F002000A49086108464461DE
:10048000006940F0400008614FF4702000F00CF863
:1004900005460448006920F0020002490861284628
:1004A00030BD00000020024000B50346012200BF1D
:1004B00000F00CF802465B1E012A01D1002BF7D197
:1004C000012A00D10422104600BD000000200A4984
:1004D000C96801F0010109B101200CE00649C968B1
:1004E00001F0100109B1032005E00349C96801F0DA
:1004F000040101B102207047002002400548006954
:1005000000F0800020B10448024948600348486078
:10051000704700000020024023016745AB89EFCD02
:1005200070B504460D464FF47020FFF7BDFF064638
:100530008EB90A48006940F0010008490861256049
:100540004FF47020FFF7B0FF06460448006920F022
:10055000010002490861304670BD000000200240E1
:100560008161704710B5082300220121044800F082
:1005700009F8082303220021014800F02AF810BDE1
:1005800000040048F0B504460D4616462168E268AE
:10059000002019E0012787401F409FB14FEA400C1F
:1005A000032707FA0CF7B943470005FA07F7394361
:1005B0004FEA400C032707FA0CF7BA43470006FA44
:1005C00007F73A43471CB8B21028E3D32160E26032
:1005D000F0BDF0B50C461546012C03D146681E430C
:1005E000466002E046689E434660826800210DE056
:1005F00001268E401E403EB14F000326BE40B2434E
:100600004E0005FA06F632434E1CB1B21029EFD364
:100610008260F0BD00F01CFBFFF7A4FF094800F06A
:100620001FFC00F0CDF808210748FFF799FF0520CF
:100630000449487000BF034840780328FBD100BF3D
:10064000FEE70000000000200004004870B50646E8
:100650000C461546012C09D1012D07D10F48007811
:1006600010B1304600F014F9002070BD9CB9022D85
:1006700011D10A48007828B900F02AFB304600F072
:1006800007F906E005480078022802D1304600F05C
:10069000FFF80020E9E70220E7E70000FE00002065
:1006A00070B504460D468121204600F0C9FC0221A8
:1006B000204600F0C5FC0020044908701F23044AAE
:1006C0000221204600F090FE002070BDFE000020B8
:1006D0007805002070B504460D460C4A00212046DE
:1006E00000F008FD094AD21D0021204600F002FD5D
:1006F000FFF772FE0020064908701F23054A0221F9
:10070000204600F071FE002070BD0000842100082A
:10071000FE0000207805002070B505460C462078C4
:1007200000F0600028B320283ED16078FE2802D077
:10073000FF2816D10BE000201D4908701D490870E4
:1007400001231B4A8021284600F0C4FE0FE0002050
:10075000184908701F23184A0221284600F044FE59
:1007600005E02146284600F0D3FB022070BD00BF03
:100770001BE0607801280FD00A2802D00B2810D186
:1007800006E001230D4A8021284600F0A3FE09E07F
:10079000A0780A49087005E08121284600F04AFE49
:1007A00000E000BF00BF00BF00BF00BF0020DDE7CA
:1007B000A4000020FE00002078050020A5000020F5
:1007C00010B54FF4C06000F059F800220121252037
:1007D00000F002F810BD0000F0B50B460021002427
:1007E0000025244E366806F4E066B6F5E06F02D1C7
:1007F00000BF042526E01F4E366806F4E066B6F515
:10080000C06F02D1012403251CE01A4E366806F49D
:10081000E066B6F5A06F02D10224022512E0154E63
:10082000366806F4E066B6F5806F02D10324012530
:1008300008E0104E366806F4E066B6F5407F01D158
:1008400004240025C4F1040603FA06F1C5F10407E7
:100850000F26FE40164031430901074E315400F087
:100860001F070126BE404711BF0007F1E027C7F868
:100870000061F0BD0CED00E000E400E0024901433E
:10088000024A1160704700000000FA050CED00E01C
:100890002DE9F0410746E0480078232816D008DC0F
:1008A00000287DD003287CD0122809D01A2879D1BD
:1008B0004CE1252810D0282814D02A28F7D1A6E00A
:1008C0002422D6493846FFF713FDA2E10C22D44971
:1008D0003846FFF70DFD9CE10822D2493846FFF764
:1008E00007FD96E1D0480078F0BB0120CE490870A2
:1008F000C94880780006C849C97840EA0140C6491D
:10090000097940EA0120C44949790843C749086088
:10091000C148007AC049C97940EA0120C449086049
:10092000C24800688002C1490860C148006880026E
:10093000BF49086001239A02BC480168BD48FFF71F
:1009400051FD4FF48063BB4A8121384600F0C2FD5F
:10095000B648006800F58060B4490860B448006893
:10096000A0F58060B24900E001E008604EE0AE48CA
:10097000007801283DD1AE480068F8B90320AA49A3
:100980000870AD484468A448007AA349C97940EA90
:100990000120A9498968A1EB80250026324602E0A2
:1009A000B7E0B0E0D8E029462046FFF701FD0D236F
:1009B000A24A8121384600F08DFD27E001239A02EA
:1009C0009A4801689B48FFF70DFD4FF48063994AF0
:1009D0008121384600F07EFD9448006800F5806073
:1009E0009249086092480068A0F5806090490860CC
:1009F0000CE08D480078032808D100208A4908704F
:100A00001F238D4A0221384600F0EEFC01E18648A2
:100A1000007860BB0220844908707F488078000617
:100A20007D49C97840EA01407B49097940EA0120C3
:100A30007949497908437D4908607748007A7649C1
:100A4000C97940EA01207A49086078480068800244
:100A500076490860764800688002754908604FF45E
:100A60008063744A0221384600F0BEFC4AE06E48BA
:100A70000078022839D1012342026C4801686D4890
:100A8000FFF7C6FC6948006800F5806067490860A8
:100A900067480068A0F580606549086008460068FE
:100AA000D8B9032060490870634844685A48007AFE
:100AB0005949C97940EA01205F498968A1EB80253D
:100AC0000026324629462046FFF772FC0D235B4A7A
:100AD0008121384600F0FEFC14E04FF48063554A53
:100AE0000221384600F080FC0CE04F4800780328D3
:100AF00008D100204C4908701F234F4A0221384674
:100B000000F072FC85E012224D493846FFF7F0FBF9
:100B10007FE04548007878B903204349087046498A
:100B2000002248681146FFF743FC0D23434A812108
:100B3000384600F0CFFC08E000203B4908701F2336
:100B40003D4A0221384600F04FFC62E008223D4950
:100B50003846FFF7CDFB5CE03748007B00F08000B3
:100B600090B33148007858B901202F4908703649B0
:100B700008600123354A8121384600F0ABFC47E08C
:100B800029480078012811D10320274908702A4AF2
:100B90009268511E284A50680122FFF709FC0D2374
:100BA000264A8121384600F095FC31E01E48007845
:100BB00003282DD100201C4908701F231E4A022142
:100BC000384600F011FC23E0FFE71748007890B9A1
:100BD00000201D490860184A916850680122FFF7FB
:100BE000E7FB0D23154A8121384600F073FC0320F2
:100BF0000D4908700CE00C480078032808D100204B
:100C0000094908701F230C4A0221384600F0ECFB0A
:100C100000BF00BFBDE8F08168010020AC000020EB
:100C2000D0000020DC000020FE0000200801002091
:100C30000C01002078010020780500209805002094
:100C4000E4000020F600002004010020FF00002046
:100C500010B540F2125000F00DF840F21C7000F098
:100C600009F8002000F016F840F2177000F002F8C2
:100C700010BD0000064A02EB9011096800F01F0346
:100C800001229A401143024B03EB9012116070470E
:100C9000001002400549496821F44001034A5160AF
:100CA000114649680143516070470000001002403E
:100CB0000648006880B220F0040004490860084635
:100CC000006880B220F0080008607047405C004077
:100CD000002005E00449095C044A1154411CC8B2D3
:100CE0001028F7DB7047000087050020680100200E
:100CF0000C4840680B494860084640684860084610
:100D0000406848600846406820F003004860084694
:100D10004068486000BF0348406800200028FAD1BE
:100D2000704700000010024010B5FFF7E1FF10BD52
:100D300070B504460D460026287800F01F0020B14B
:100D4000012830D0022878D143E06078022802D010
:100D5000032825D100E000BF6888012818D10020B1
:100D6000E07029462046D4F89C20904700BF002020
:100D700035490968888000BF3449096848F6BF7260
:100D800001EA020080F03001304A116000BF06E045
:100D90006888022803D12946204600F0B9F800E00F
:100DA00000BF00BF4EE06078022802D003280DD1BA
:100DB00004E02946204600F0ABF808E02879012835
:100DC00003DD2946204600F0A3F800E000BF00BF85
:100DD00038E02E796078022802D003282AD107E073
:100DE0002EB1802E03D02946204600F091F822E053
:100DF000688830B92EB1802E03D03146204600F0ED
:100E00008FF829462046D4F89C20904700BF002048
:100E10000D490968888000BF0C49096848F6BF720F
:100E200001EA020080F03001084A116000BF00BFF3
:100E300001E002E000BF00BF04E02946204600F0C8
:100E400067F800BF00BF70BD18010020005C0040C3
:100E50000346D3F88C0080781080D3F88C0070475C
:100E60000021C1700121094A116000211160121D89
:100E70001160064A103211604FF41F41044A11609C
:100E80001146098889B2014A11607047405C0040F0
:100E90001001002070B504460D466078032822D169
:100EA000287901281ADC29462046D4F89C2090474E
:100EB0000646E888B0B9AEB900BF00200E490968FF
:100EC000888000BF0D49096848F6BF7201EA020038
:100ED00080F03001094A116000BF03E02946204636
:100EE00000F016F804E02946204600F011F800BF93
:100EF00000BF002070BD000018010020005C004011
:100F00000346D3F8880000781080D3F88800704733
:100F100070B504460D460021204600F08BFA70BDE6
:100F2000F0B5024601F07F00CC117CB300EB8005E8
:100F300002F1100404EB850300BF2E4D05EB800485
:100F4000D4F8004C04F040046CB105EB8004D4F8F4
:100F5000004C48F68F752C4044F04004254E06EBBB
:100F60008005C5F8004C00BF00BF224E06EB80058F
:100F7000D5F8005C48F6BF7605EA060484F0300533
:100F80001C4F07EB8006C6F8005C30E0FFE700EB83
:100F9000800502F14C0404EB850300BF154D05EB01
:100FA0008004D4F8004C04F480446CB105EB800458
:100FB000D4F8004C48F68F752C4044F480440D4E14
:100FC00006EB8005C5F8004C00BF00BF094E06EBDC
:100FD0008005D5F8005C4BF68F7605EA060484F4AC
:100FE0004055044F07EB8006C6F8005C00BF0024A4
:100FF0001C70F0BD0050004070B5074D05EB41047A
:10100000002304E034F8046B0680801C5B1C551C34
:10101000B3EB550FF6D370BD0060004030B5074DFF
:1010200005EB4104002303E0058820C4801C5B1C01
:10103000551CB3EB550FF7D330BD000000600040E6
:1010400030B5034601F07F00CA113AB300BF284C07
:1010500004EB8002D2F8002C02F040026AB104EBEB
:101060008002D2F8002C48F68F74224042F04002F1
:101070001F4D05EB8004C4F8002C00BF00BF1C4DC1
:1010800005EB8004D4F8004C48F6BF7504EA05026D
:10109000174D05EB8004C4F8002C27E000BF144C6A
:1010A00004EB8002D2F8002C02F480426AB104EB17
:1010B0008002D2F8002C48F68F74224042F480421D
:1010C0000B4D05EB8004C4F8002C00BF00BF084D99
:1010D00005EB8004D4F8004C4BF68F7504EA05024A
:1010E000034D05EB8004C4F8002C00BF30BD0000A8
:1010F000005000402DE9F04305460B4614462246B9
:10110000967806F00F000021D67806F0030636B177
:10111000012E0CD0022E05D0032E0BD104E04FF48B
:10112000007108E0002106E04FF4C06103E04FF4D5
:10113000806100E000BF00BF41EA0006B6B2DFF800
:101140009CC20CEB8007C7F8006C91889678F6116A
:10115000002E77D000EB800C05F1100606EB8C0713
:1011600079609F4E3688DFF87CC2DCF800C00CEB5B
:10117000001CACF800604E1C26F00101984E366849
:101180000E44DFF85CC2CCF80060012B44D1DFF8DC
:101190004CC20CEB8006D6F8006C46F4807648F61C
:1011A0008F7C06EA0C06DFF8348208EB800CCCF862
:1011B000006C8B4E3688DFF82CC2DCF800C00CEBDC
:1011C000001CACF80860864E36680E44DFF810C28A
:1011D000CCF8006000BF08EB800CDCF800CC48F6CF
:1011E000BF780CEA080686F0300CDFF8F09109EBC6
:1011F0008008C8F800CC00BF00BFC84608EB800CD0
:10120000DCF800CC4BF68F780CEA0806C84608EBF1
:10121000800CCCF8006C13E000BFDFF8C08108EB55
:10122000800CDCF800CC48F6BF780CEA080686F0A3
:10123000200CDFF8A89109EB8008C8F800CC00BFAB
:10124000C9E0FFE700EB800C05F14C0606EB8C07CC
:101250007960012B55D1DFF884C10CEB8006D6F8FC
:10126000006C46F4807648F68F7C06EA0C06DFF8C0
:101270006C8108EB800CCCF8006CC4460CEB80064B
:10128000D6F8006C48F68F7C06EA0C0646F040065D
:1012900008EB800CCCF8006C514E3688DFF844C166
:1012A000DCF800C00CEB001CACF800603E2912D941
:1012B00001F11F0626F01F010126C6EB4116B6B24A
:1012C00046F40046DFF81CC1DCF800C00CEB001C43
:1012D000ACF804600EE04E1C26F001014FF6FF76DC
:1012E00006EA4126DFF8FCC0DCF800C00CEB001C6D
:1012F000ACF80C603A4E36680E44DFF8E4C0CCF827
:1013000000609188364E3688DFF8D8C0DCF800C01F
:101310000CEB001CACF808603E2912D901F11F0645
:1013200026F01F010126C6EB4116B6B246F4004670
:10133000DFF8B0C0DCF800C00CEB001CACF80C60AF
:101340000EE04E1C26F001014FF6FF7606EA41261C
:10135000DFF890C0DCF800C00CEB001CACF80C60AF
:10136000012B23D100BFDFF8748008EB800CDCF880
:1013700000CC4BF68F780CEA0806DFF8608008EBAB
:10138000800CCCF8006C00BF00BF08EB800CDCF8D0
:1013900000CC48F6BF780CEA080686F0200CDFF88F
:1013A0003C9009EB8008C8F800CC13E000BFDFF8E0
:1013B0002C8008EB800CDCF800CC4BF68F780CEA24
:1013C000080686F4005CDFF8149009EB8008C8F882
:1013D00000CC00BF00BFBDE8F0830000005000401B
:1013E00014010020180100202DE9F041044601F00D
:1013F0007F0000EB800704F14C0606EB8705AA602E
:10140000EB6000BFDFF828C00CEB8007D7F8007C4A
:101410004BF68F7C07EA0C0686F44057DFF8108005
:1014200008EB800CCCF8007C00BFBDE8F081000028
:1014300000500040F0B5024601F07F00CC11BCB175
:1014400000EB800502F1100404EB850300BF204E81
:1014500006EB8005D5F8005C48F6BF7605EA060481
:1014600084F010051A4F07EB8006C6F8005C17E001
:1014700000EB800502F14C0404EB850300BF144E21
:1014800006EB8005D5F8005C4BF68F7605EA06047E
:1014900084F480550E4F07EB8006C6F8005C00BF51
:1014A00001241C7098B900BF094E06EB8005D5F8E1
:1014B000005C4BF6BF7605EA060484F4805585F09F
:1014C0001005034F07EB8006C6F8005C00BFF0BDB7
:1014D000005000402DE9F84306460F4690469946D5
:1014E0000020009007F07F0505EB850106F1100054
:1014F00000EB8104C4F80880C4F80C90002020613F
:101500006168E068884202D96068009001E0E068A4
:101510000090009B9AB2114B1B6803EB05131988CE
:10152000A068FFF77BFD0D490098096801EB0511E4
:10153000888000BF0A4A02EB8501D1F8001C48F6FA
:10154000BF7201EA020080F03001054B03EB850217
:10155000C2F8001C00BFBDE8F8830000180100209D
:101560000050004038B504460D4600200090E88841
:10157000012804D029462046FFF7CAFC19E060780C
:10158000022802D003280ED106E001236A468021FA
:101590002046FFF79FFF0BE00123224680212046D3
:1015A000FFF798FF04E029462046FFF7B1FC00BF93
:1015B00000BF38BD2DE9F84305460C46207800F001
:1015C0001F0078BB4FF0000860880612A778002043
:1015D0000090032E21D8052F1FD8701E194951F8ED
:1015E00020306A463946284698478046BDF80000B4
:1015F000B8B1E088A8B1E088BDF80010884202DDEB
:10160000BDF8000000E0E0880090BDF800304246E0
:1016100080212846FFF75EFF03E021462846FFF7BA
:1016200077FC0DE0FFE7207800F01F00012807D1CC
:10163000D5F89C0020B121462846D5F89C2090473B
:10164000BDE8F8835801002070B504460D46607867
:10165000022802D0032816D104E029462046FFF7CD
:1016600057FC11E02879012808DCD4F89C0048B127
:1016700029462046D4F89C20904703E0294620467E
:10168000FFF746FC00E000BF00BF70BD7CB504461C
:101690000E46002001900090307800F01F0020B12D
:1016A00001281AD0022867D134E06078022802D0DD
:1016B00003280FD100E000BFE07820B1BDF804009E
:1016C00040F002000190022301AA80212046FFF78A
:1016D00001FF00E000BF00BF53E06078022802D0A5
:1016E000032814D104E031462046FFF711FC0FE037
:1016F0003079012806DC022301AA80212046FFF769
:10170000E9FE03E031462046FFF702FC00E000BF9F
:1017100000BF36E035796078022802D0032828D14E
:1017200007E02DB1802D03D031462046FFF7F0FBB6
:1017300020E005F0800080280BD105F07F0000EB51
:10174000800104F1100010F8210058B10120009030
:1017500008E005EB850104F14C0010F8210008B108
:101760000120009002236A4680212046FFF7B2FE46
:1017700000E000BF00BF04E031462046FFF7C8FB91
:1017800000BF00BF7CBD000070B505460E4606EBED
:10179000860105F1100000EB8104002E64D1E86899
:1017A000002853D06168E068884211D96168E06818
:1017B000401AE060A08983B280212846A268FFF722
:1017C00089FE00231A4619462846FFF70DFE62E0FF
:1017D0006168E068B0FBF1F201FB120090B9E068CB
:1017E000E96888420ED200231A4680212846FFF776
:1017F00071FE0020E86000231A4619462846FFF7CC
:10180000F3FD48E00020E0606878032805D100225D
:1018100001212846D5F8A030984700BF1F4800682E
:1018200040F4807048F68F7108401C49086000BF82
:1018300009684BF68F7201EA020080F44051174AA2
:10184000116000BF00BF0020E86024E01448007869
:1018500008B31348007840F0800010494C3108600C
:1018600000200F49087016E0D4E90301401AE06037
:10187000E06848B9687803280DD13246012128462E
:10188000D5F8A030984706E0A08983B231462846B3
:10189000A268FFF71FFE002070BD0000005C004042
:1018A0002001002001461448007818B3124800783F
:1018B000401E114A107010460078D8B90F480078C1
:1018C00001280AD10E48006880B220F010000C4AAE
:1018D00010600020094A10700CE00948006880B2CE
:1018E00040F01000064A10600320034A10700120E7
:1018F000024A1070002070471C0100201E010020C9
:10190000405C00402DE9FC41074600250020019085
:101910000090002495E0BDF8040000F00F054E494A
:1019200001EB8500D0F8000C80B20090BDF80400F7
:1019300000F0100048BB05EB850107F1100000EB3B
:101940008104BDF8000000F08000002879D04249F1
:1019500001EB8500D0F8000C48F60F7108403E4AB4
:1019600002EB8501C1F8000C3C48006800EB051053
:101970008088C0F3090020612169A0680844A06044
:1019800029463846FFF700FF5BE0002605EB85019E
:1019900007F14C0000EB8104BDF8000000F40040AA
:1019A00000284DD02C4901EB8500D0F8000CC0F385
:1019B0000E0048F68F710840274A02EB8501C1F8F6
:1019C000000C2648006800EB05108089C0F309066A
:1019D000D6B1BDF8000000F4006060B11F48006897
:1019E00001893246381DFFF707FB384600F02DFB12
:1019F0000020BDE8FC81194A126802EB051211892A
:101A00003246A068FFF7F8FA206930442061A068E8
:101A10003044A060E068801BE060E06810B160685E
:101A2000B04206D92946384600F004F9002020616A
:101A300006E0A08983B229463846A268FFF7D4FCA5
:101A400000BF0748006880B2019000F40040002801
:101A50007FF461AF00BFCCE70050004018010020C8
:101A6000445C004010B5024630201F4B18601846F9
:101A700000881E4B1B6818801B48006840301A4BBA
:101A8000186018460088194B1B68188116480068B2
:101A90004030154B186048F2FF70144B1B6898815A
:101AA00040235361136500210FE0114B03EB8100CC
:101AB000D0F8000C48F68F73184008430C4C04EB28
:101AC0008103C3F8000C481CC1B20329EDDB43F2CB
:101AD0002020084B18608020064B4C3318600120F2
:101AE0005070002010BD00001401002018010020DB
:101AF00000500040005C004010B5044604480068F7
:101B000020B103480068016820468847002010BDC6
:101B1000A800002010B504466078A0700420607012
:101B20000548007810B100F0CFFA02E00320034925
:101B30000870002010BD00001D0100201C010020C5
:101B400010B50446A07860700348007808B9FFF724
:101B5000AFF8002010BD00001E0100201CB50020C1
:101B6000019000903048006880B201902F480088B2
:101B700000F40040BDF80410084010B12C48FFF7F5
:101B8000C1FE2A48008800F48050BDF804100840C7
:101B900030B14EF6FF70244908602548FFF7D0FFAA
:101BA0002248008800F40060BDF80410084060B1CD
:101BB0001D48001F006800F0100030B91C48FFF7F6
:101BC000A9FF4FF2FF70184908601848008800F418
:101BD0000070BDF80410084030B14FF6FF501249B4
:101BE00008601348FFF788FF1048008800F48070F1
:101BF000BDF80410084030B14FF6FF600A49086094
:101C00000B48FFF74FFE0948008800F48060BDF8DC
:101C10000410084030B14FF6FF3003490860044813
:101C2000FFF720FF1CBD0000445C004010010020B5
:101C30000000002070B504460E4606EB860104F154
:101C40004C0000EB81057EBBE06870B36968E86812
:101C500088420BD96968E868401AE860A88983B2AD
:101C600000212046AA68FFF7BFFB30E06078032818
:101C700005D1002211462046D4F8A030984700BF75
:101C8000002014490968888000BF1349096848F694
:101C9000BF7201EA020080F030010F4A116000BFFC
:101CA00000BF0020E06012E008E0FFE70A4800689B
:101CB00048F68F6108400849086008E0607803280A
:101CC00005D1324600212046D4F8A03098470020A4
:101CD00070BD000018010020005C0040704700004B
:101CE00070B504460D46A88848BBE88838BBA8787C
:101CF00000F07F00144908706078032804D1294659
:101D00002046FFF705F91EE000BF00200F490968D3
:101D1000888000BF0E49096848F6BF7201EA0200D8
:101D200080F030010A4A116000BF00BF0648007809
:101D300010B10220607006E00120607003E02946C7
:101D40002046FFF7E5F870BD2001002018010020B3
:101D5000005C004070B504460D46A8784F490870F5
:101D600008460078012804DD29462046FFF7D0F810
:101D700093E06078022802D0032878D132E0474807
:101D80000078E0B145480078207003206070434837
:101D900001782046D4F89420904700BF00204049A5
:101DA0000968888000BF3F49096848F6BF7201EAA8
:101DB000020080F030013B4A116000BF11E000BF1B
:101DC000002037490968888000BF3649096848F60D
:101DD000BF7201EA020080F03001324A116000BF98
:101DE00000BF59E02D480078E0B9022060702B4810
:101DF00000782070294801782046D4F89820904730
:101E000000BF002026490968888000BF254909686D
:101E100048F6BF7201EA020080F03001214A1160E9
:101E200000BF37E020781D490978884220D021780A
:101E30002046D4F89820904718480078207017481A
:101E400001782046D4F89420904700BF0020144920
:101E50000968888000BF1349096848F6BF7201EA23
:101E6000020080F030010F4A116000BF12E012E062
:101E700000BF00200A490968888000BF0949096835
:101E800048F6BF7201EA020080F03001054A116095
:101E900000BF00BF00E000BF00BF70BD64010020B4
:101EA00018010020005C00407047000070B5054636
:101EB0000C460026207800F01F0020B1012823D016
:101EC000022865D136E06878022802D0032818D1AC
:101ED00000E000BF6088012812D1E87000BF002038
:101EE0002F490968888000BF2E49096848F6BF72EB
:101EF00001EA020080F030012A4A116000BF00BFF1
:101F000000E000BF00BF48E06878022802D0032844
:101F10000DD104E021462846FEF7FAFF08E02079BB
:101F2000012803DD21462846FEF7F2FF00E000BF4E
:101F300000BF32E026796878022802D0032824D135
:101F400007E02EB1802E03D021462846FEF7E0FFA1
:101F50001CE0608830B92EB1802E03D0314628466F
:101F6000FFF768FA00BF00200D490968888000BFAC
:101F70000C49096848F6BF7201EA020080F030019E
:101F8000084A116000BF00BF00E000BF00BF04E0CE
:101F900021462846FEF7BCFF00BF00BF70BD000011
:101FA00018010020005C004070B504460D466078C2
:101FB000022802D0032827D104E029462046FEF754
:101FC000A7FF22E02879012819DCD4F89C0020B171
:101FD00029462046D4F89C20904700BF00200C4999
:101FE0000968888000BF0B49096848F6BF7201EA9A
:101FF000020080F03001074A116000BF03E029466B
:102000002046FEF785FF00E000BF00BF70BD000066
:1020100018010020005C004010B50246101D037836
:102020000B7043784B708478C37804EB03234B80A8
:102030000479437904EB03238B808479C37904EB1F
:102040000323CB80CB88D36010BD1CB50446694602
:102050002046FFF7E1FF9DF8000000F0600020B18E
:10206000202807D040280FD109E06946204600F01B
:1020700013F80EE069462046FEF70CFF09E06946BA
:10208000204600F02CF804E000212046FFF7D2F9AA
:1020900000BF00BF00201CBD70B505460C4660782F
:1020A000034951F82020214628469047002070BD62
:1020B0002401002010B50346D3F8904054F82100C5
:1020C0000478148010BD00000348006880B240F01E
:1020D0000C00014908607047405C004070470246B0
:1020E0000020704716034700690067006100440044
:1020F000650076006900630065000000300347005A
:1021000044003300320020005500530042002000FC
:102110004D0053004300200069006E00200046007F
:10212000530020004D006F00640065000000300384
:1021300047004400330032004600310058003000B0
:102140002D00560033002E0030002E0030002D00F0
:102150003300610034006200350065006300000058
:102160001201000200000040E9288F020001010274
:10217000030109022000010104C032090400000229
:1021800008065000070581024000000705020240D2
:10219000000004030904000092210008E420000864
:1021A000FC2000082E210008C821000800000020A3
:1021B00068010000C40100085822000868010020DE
:1021C00040080000E002000801881360211B08722B
:1021D000041A980413D5061B08A1041319071B0839
:1021E0004D0891128033011F1E47443332200128CD
:1021F0000B4E616E6420466C6173680E372020318F
:102200002E30302930132F024204222F1204127074
:102210004205420A5220021D032945111260124054
:102220006201138D161408310D1408DD1C4C08AD25
:102230001E081AE10413B5151B08A9101A65081326
:10224000551D1B0849281BA91F2012201408010F27
:082250001C08510E24190C4179
:040000050800016985
:00000001FF
