:020000040800F2
:10000000580400207D010008D5010008CD0100083A
:10001000D1010008C5010008ED0200080000000041
:10002000000000000000000000000000DD010008EA
:10003000C901000800000000D9010008950100086E
:100040009701000897010008970100089701000830
:100050009701000897010008970100089701000820
:100060009701000897010008970100089701000810
:100070009701000897010008970100089701000800
:100080009701000897010008000000009701000890
:1000900097010008970100089701000897010008E0
:1000A00097010008970100089701000897010008D0
:1000B0009701000800000000970100080000000000
:1000C0009701000800000000970100089701000850
:1000D0009701000897010008970100080000000040
:1000E00000000000000000009701000897010008D0
:1000F0009701000897010008970100089701000880
:1001000097010008000000000000000097010008AF
:1001100000000000000000000000000000000000DF
:1001200000000000000000000000000000000000CF
:1001300000000000000000000000000000000000BF
:1001400000000000000000000000000000000000AF
:10015000000000000000000097010008970100085F
:100160009701000897010008DFF80CD000F018F89C
:10017000004800472505000858040020064880472D
:1001800006480047FEE7FEE7FEE7FEE7FEE7FEE77C
:10019000FEE7FEE7FEE7FEE7E1010008690100086F
:1001A000064C074D06E0E06840F0010394E80700C4
:1001B00098471034AC42F6D3FFF7DAFF240B00085F
:1001C000440B0008FEE7000070470000FEE7000057
:1001D000FEE7000070470000704700007047000015
:1001E00080B541F20400C4F2020050F8041C41F052
:1001F000010140F8041C00BF50F8041C8907FBD51E
:1002000001680C22C0F6FF021140016001684FF640
:10021000FF72C7F2C2721140016001684FF6FF72AF
:1002200021F44001016050F8041CCFF6F262114045
:1002300040F8041C816A40F2431221F00F018162F0
:10024000C16A9143C162016B21F001010163002188
:10025000416000F029FB80BD10B540F2115000F064
:10026000E1FA40F2117000F0DDFA4FF09040012108
:10027000042200F0D1F84FF090400121082200F054
:10028000CBF84FF0904002210122042300F0FCF84B
:100290004FF0904000210122042300F01FF94FF09D
:1002A000904002210122082300F0EEF84FF0904028
:1002B00000210122082300F011F944F20044C4F2A5
:1002C0000004204600F026FB20464FF4E13100F008
:1002D000EFFA2046082100F05DFB2046042100F0E3
:1002E00051FB204600F040FB10BD0000FEE700007F
:1002F000082100EB8000C4F2020151F8202042F0F6
:10030000010241F820207047082100EB8000C4F270
:10031000020151F8202022F0200241F820207047ED
:10032000042200EB8001C4F2020202EB81014B685F
:10033000800023F001034B6000234B608B60CB6097
:100340000B610F21136801FA00F018431060704729
:100350000022C4F202021268800001FA00F010408C
:1003600018BF01207047000070B50825DDE908ECD2
:10037000049C00EB8000C4F2020505EB8006B1602E
:10038000F460C6F804E0059E55F82010324321F4CD
:100390007C5142EA0C02114345F8201055F8201018
:1003A000002B21F0400108BF403145F8201055F8DE
:1003B0002010069A21F08001002A08BF803145F8FC
:1003C000201055F82010079A21F01001002A18BFBC
:1003D000103145F8201070BD082100EB8000C4F2F8
:1003E000020151F8202022F4804241F82020704779
:1003F000B0B544F20045C4F200050446C1B2284637
:1004000000F084FA284640F2077100F0B3FA0028A1
:10041000F8D02046B0BD0000F0B5D0F820E0D0F80C
:1004200024C000230F27002505E000BF0135082D5B
:1004300003F104030CD022FA05F6F607F6D007FA0A
:1004400003F62EEA060601FA03F446EA040EEDE787
:10045000082300240F2504E00133102B04F10404C9
:100460000CD022FA03F6F607F6D005FA04F62CEAC9
:10047000060701FA04F647EA060CEDE7C0F820E0AB
:10048000C0F824C0F0BD00002DE9F041D0F800E034
:10049000D0F80CC000244FF00308002605E000BF90
:1004A0000136102E04F1020412D023FA06F7FF07DA
:1004B000F6D008FA04F72EEA070E01FA04F54EEA20
:1004C000050E2CEA070702FA04F547EA050CE7E7F0
:1004D000C0F800E0C0F80CC0BDE8F081B0B501295B
:1004E000416814BF994319434160D0F808C0002106
:1004F0004FF0030E002404E00134102C01F102013E
:100500000CD023FA04F5ED07F6D00EFA01F52CEA2B
:10051000050C02FA01F54CEA050CEDE7C0F808C03D
:10052000B0BD000086B044F200484FF4A060C4F2B1
:10053000000800F077F9FFF78FFE40F60130C0F6B3
:10054000000000F0B9FA3EA000F0B6FA41A046A1C2
:1005500048A200F027FA4AA000F0AEFA51A000F03D
:1005600021FA0320FFF7DCFE40F204030121002200
:10057000C2F200034320CDE90032CDE9022144F26A
:1005800028414FF440570490C4F200010320002298
:1005900001230597FFF7E8FE0320FFF7B5FE0320D0
:1005A000FFF71AFF0320FFF7A3FE4046802100F06B
:1005B000D3F900BF03200221FFF7CAFE0028F9D0BB
:1005C00040F2480544F2244B40F6DC274FF44059F2
:1005D0004FF00A0A0026C2F20005C4F2000BC0F672
:1005E00000073AA40420FFF79BFE0420594600228E
:1005F0000123CDE90056CDE90266CDF810A0CDF873
:100600001490FFF7B1FE0420FFF77EFE0420FFF7F1
:10061000E3FE0420FFF76CFE4046402100F094F911
:10062000384600F049FA00BF04200221FFF790FE8F
:100630000028F9D02046294600F0B4F9D2E700BFDF
:100640005369706565644051696E59554E3537354B
:100650000D000000436F6D70696C654020257320AC
:1006600025730D0A000000004465632031392032F3
:100670003032300030393A32353A3134000000003F
:100680002D2D2D2D2D2D2D2D2D2D2D2D2D2D2D2D9A
:100690002D2D2D2D2D2D2D2D2D2D2D2D2D2D2D0DAA
:1006A000000000000A0D6120757361727420646D92
:1006B000612066756E6374696F6E20746573742053
:1006C0006578616D706C65210A0D00000A0D257357
:1006D0000A0D0000F0B541F20403C4F202031968E8
:1006E000024641F20020C0F27A0001F00C01082914
:1006F000014619D119681E681D6836014FF01106B0
:10070000C1F3834158BF0226ED03314405D440F6BE
:100710000016C0F23D06714306E09E6A06F00F0621
:100720000136B0FBF6F671431E68D3F800E01D6891
:10073000062A1CD8C6F3031634A4A65D37A7C5F352
:10074000C22521FA06F47D5D24FA05FCDFE802F0FB
:100750000413152E061C25008C4627E0D86AC00518
:1007600026D449F6807CC0F2D50C6046F0BD4FF02F
:10077000000C6046F0BD2046F0BDCEF30220385C90
:1007800024FA00FC6046F0BDD86A4FF4004C4006E5
:1007900058BF48F2120C6046F0BDDA6A920705D0E5
:1007A000DA6A8C4602F00302012A0CD16046F0BDE1
:1007B0001868C0F38130DFE800F002161A244FEA0F
:1007C0005C0C6046F0BDD96A01F00301022903D137
:1007D0004FF4004C6046F0BDD96A01F003010329D3
:1007E00018BF0020F0BD4FEA9C0C6046F0BD4AF6F1
:1007F000AB20CAF6AA20ACFB00014FEA910C604680
:10080000F0BD4FEADC0C6046F0BD00BF0000000008
:1008100000000000010203040607080900000000B0
:100820000102030441F2000300F01F018009C4F239
:1008300002034FF0010CC2580CFA01F11143C150F0
:100840007047000041F2000300F01F018009C4F26C
:1008500002034FF0010CC2580CFA01F122EA010127
:10086000C150704741F2000300F01F018009C4F23B
:1008700002034FF0010CC2580CFA01F11143C150B0
:100880007047000041F20400C4F2020001680160F8
:100890000168016001680160016821F003010160E5
:1008A000016801600068704780B5FFF7EBFF80BD0D
:1008B000B0B5044643F60000C4F2010084420D4680
:1008C00007D044F20040C4F20000844205D1022067
:1008D00000E00620FFF7FEFE00E00020216809048A
:1008E00006D400EB5500B0FBF5F080B2E060B0BD7F
:1008F000400000EB5500B0FBF5F04FF6F071014001
:10090000C0F342000844E060B0BD00006FF35F2117
:100910008162704710B543F60001C4F201018842BC
:1009200009D044F20041C4F20001884218BF10BD52
:1009300040F2114401E040F20E342046FFF792FFEE
:100940002046FFF77FFF10BD826822F040028260E0
:100950008268114381607047826822F08002826061
:100960008268114381607047016841F001010160B4
:10097000704700008A09105801F01F01C84000F0BC
:1009800001007047026822F004020260026811430D
:1009900001607047026822F0080202600268114399
:1009A000016070470FB4054B10B503A9044A0298C3
:1009B00000F017F810BC5DF814FB0000F10300080C
:1009C0000000002002E008C8121F08C1002AFAD166
:1009D00070477047002001E001C1121F002AFBD1BF
:1009E00070472DE9F84F99469246884605460027FC
:1009F00006E025280AD051464A4690476D1C7F1CC8
:100A000028780028F5D13846BDE8F88F002315F87E
:100A1000011F18462E2915D115F8011F04232A2974
:100A20000DD06FF02F022978A1F13004092C09D8DC
:100A300000EB800002EB400008446D1CF3E758F81F
:100A4000040B6D1C2A78002ADDD0632A07D0732A94
:100A50000FD0104651464A4690477F1C2AE018F8AE
:100A6000042B8DF8002000218DF801106E46012125
:100A700003E058F8046B4FF0FF315A074FF00004C1
:100A800001D409E0641C84420BDA8C42FADB325D4B
:100A9000002AF7D105E0641C8C42FCDB305D0028A5
:100AA000F9D1274404E016F8010B51464A46904715
:100AB000641EF8D26D1CA3E710B5044601E0FFF7F1
:100AC00097FC14F8010B04490028F8D1BDE8104048
:100AD0000A20FFF78DBC00000000002077616974D8
:100AE00020444D41206368616E6E656C20747261B4
:100AF0006E7366657220636F6D706C657465210D31
:100B0000002D2D2D2D2D2D2D2D2D2D2D2D2D2D2D42
:100B10002D2D2D2D2D2D2D2D2D2D2D2D2D2D2D2D05
:100B20000D000000480B00080000002048000000F5
:100B3000C4090008900B00084800002010040000C1
:100B4000D409000800000000000000000A0D555301
:100B500041525420444D4120726563656976652099
:100B6000616E64207472616E736D69742065786162
:100B70006D706C652C20706C6561736520696E709A
:100B800075742031302062797465733A0A0D000063
:040000050800016985
:00000001FF
